{
  "_format": "hh-sol-artifact-1",
  "contractName": "NFTMarketplace",
  "sourceName": "contracts/NFTMarketplace.sol",
  "abi": [
    {
      "inputs": [],
      "stateMutability": "nonpayable",
      "type": "constructor"
    },
    {
      "anonymous": false,
      "inputs": [
        {
          "indexed": true,
          "internalType": "address",
          "name": "owner",
          "type": "address"
        },
        {
          "indexed": true,
          "internalType": "address",
          "name": "approved",
          "type": "address"
        },
        {
          "indexed": true,
          "internalType": "uint256",
          "name": "tokenId",
          "type": "uint256"
        }
      ],
      "name": "Approval",
      "type": "event"
    },
    {
      "anonymous": false,
      "inputs": [
        {
          "indexed": true,
          "internalType": "address",
          "name": "owner",
          "type": "address"
        },
        {
          "indexed": true,
          "internalType": "address",
          "name": "operator",
          "type": "address"
        },
        {
          "indexed": false,
          "internalType": "bool",
          "name": "approved",
          "type": "bool"
        }
      ],
      "name": "ApprovalForAll",
      "type": "event"
    },
    {
      "anonymous": false,
      "inputs": [
        {
          "indexed": true,
          "internalType": "uint256",
          "name": "tokenId",
          "type": "uint256"
        },
        {
          "indexed": false,
          "internalType": "address",
          "name": "seller",
          "type": "address"
        },
        {
          "indexed": false,
          "internalType": "address",
          "name": "owner",
          "type": "address"
        },
        {
          "indexed": false,
          "internalType": "uint256",
          "name": "price",
          "type": "uint256"
        },
        {
          "indexed": false,
          "internalType": "bool",
          "name": "sold",
          "type": "bool"
        }
      ],
      "name": "MarketItemCreated",
      "type": "event"
    },
    {
      "anonymous": false,
      "inputs": [
        {
          "indexed": true,
          "internalType": "address",
          "name": "from",
          "type": "address"
        },
        {
          "indexed": true,
          "internalType": "address",
          "name": "to",
          "type": "address"
        },
        {
          "indexed": true,
          "internalType": "uint256",
          "name": "tokenId",
          "type": "uint256"
        }
      ],
      "name": "Transfer",
      "type": "event"
    },
    {
      "inputs": [
        {
          "internalType": "address",
          "name": "to",
          "type": "address"
        },
        {
          "internalType": "uint256",
          "name": "tokenId",
          "type": "uint256"
        }
      ],
      "name": "approve",
      "outputs": [],
      "stateMutability": "nonpayable",
      "type": "function"
    },
    {
      "inputs": [
        {
          "internalType": "address",
          "name": "owner",
          "type": "address"
        }
      ],
      "name": "balanceOf",
      "outputs": [
        {
          "internalType": "uint256",
          "name": "",
          "type": "uint256"
        }
      ],
      "stateMutability": "view",
      "type": "function"
    },
    {
      "inputs": [
        {
          "internalType": "uint256",
          "name": "tokenId",
          "type": "uint256"
        }
      ],
      "name": "createMarketSale",
      "outputs": [],
      "stateMutability": "payable",
      "type": "function"
    },
    {
      "inputs": [
        {
          "internalType": "string",
          "name": "tokenURI",
          "type": "string"
        },
        {
          "internalType": "uint256",
          "name": "price",
          "type": "uint256"
        }
      ],
      "name": "createToken",
      "outputs": [
        {
          "internalType": "uint256",
          "name": "",
          "type": "uint256"
        }
      ],
      "stateMutability": "payable",
      "type": "function"
    },
    {
      "inputs": [],
      "name": "fetchItemsListed",
      "outputs": [
        {
          "components": [
            {
              "internalType": "uint256",
              "name": "tokenId",
              "type": "uint256"
            },
            {
              "internalType": "address payable",
              "name": "seller",
              "type": "address"
            },
            {
              "internalType": "address payable",
              "name": "owner",
              "type": "address"
            },
            {
              "internalType": "uint256",
              "name": "price",
              "type": "uint256"
            },
            {
              "internalType": "bool",
              "name": "sold",
              "type": "bool"
            }
          ],
          "internalType": "struct NFTMarketplace.MarketItem[]",
          "name": "",
          "type": "tuple[]"
        }
      ],
      "stateMutability": "view",
      "type": "function"
    },
    {
      "inputs": [],
      "name": "fetchMarketItems",
      "outputs": [
        {
          "components": [
            {
              "internalType": "uint256",
              "name": "tokenId",
              "type": "uint256"
            },
            {
              "internalType": "address payable",
              "name": "seller",
              "type": "address"
            },
            {
              "internalType": "address payable",
              "name": "owner",
              "type": "address"
            },
            {
              "internalType": "uint256",
              "name": "price",
              "type": "uint256"
            },
            {
              "internalType": "bool",
              "name": "sold",
              "type": "bool"
            }
          ],
          "internalType": "struct NFTMarketplace.MarketItem[]",
          "name": "",
          "type": "tuple[]"
        }
      ],
      "stateMutability": "view",
      "type": "function"
    },
    {
      "inputs": [],
      "name": "fetchMyNFTs",
      "outputs": [
        {
          "components": [
            {
              "internalType": "uint256",
              "name": "tokenId",
              "type": "uint256"
            },
            {
              "internalType": "address payable",
              "name": "seller",
              "type": "address"
            },
            {
              "internalType": "address payable",
              "name": "owner",
              "type": "address"
            },
            {
              "internalType": "uint256",
              "name": "price",
              "type": "uint256"
            },
            {
              "internalType": "bool",
              "name": "sold",
              "type": "bool"
            }
          ],
          "internalType": "struct NFTMarketplace.MarketItem[]",
          "name": "",
          "type": "tuple[]"
        }
      ],
      "stateMutability": "view",
      "type": "function"
    },
    {
      "inputs": [
        {
          "internalType": "uint256",
          "name": "tokenId",
          "type": "uint256"
        }
      ],
      "name": "getApproved",
      "outputs": [
        {
          "internalType": "address",
          "name": "",
          "type": "address"
        }
      ],
      "stateMutability": "view",
      "type": "function"
    },
    {
      "inputs": [],
      "name": "getListingPrice",
      "outputs": [
        {
          "internalType": "uint256",
          "name": "",
          "type": "uint256"
        }
      ],
      "stateMutability": "view",
      "type": "function"
    },
    {
      "inputs": [
        {
          "internalType": "address",
          "name": "owner",
          "type": "address"
        },
        {
          "internalType": "address",
          "name": "operator",
          "type": "address"
        }
      ],
      "name": "isApprovedForAll",
      "outputs": [
        {
          "internalType": "bool",
          "name": "",
          "type": "bool"
        }
      ],
      "stateMutability": "view",
      "type": "function"
    },
    {
      "inputs": [],
      "name": "name",
      "outputs": [
        {
          "internalType": "string",
          "name": "",
          "type": "string"
        }
      ],
      "stateMutability": "view",
      "type": "function"
    },
    {
      "inputs": [
        {
          "internalType": "uint256",
          "name": "tokenId",
          "type": "uint256"
        }
      ],
      "name": "ownerOf",
      "outputs": [
        {
          "internalType": "address",
          "name": "",
          "type": "address"
        }
      ],
      "stateMutability": "view",
      "type": "function"
    },
    {
      "inputs": [
        {
          "internalType": "uint256",
          "name": "tokenId",
          "type": "uint256"
        },
        {
          "internalType": "uint256",
          "name": "price",
          "type": "uint256"
        }
      ],
      "name": "resellToken",
      "outputs": [],
      "stateMutability": "payable",
      "type": "function"
    },
    {
      "inputs": [
        {
          "internalType": "address",
          "name": "from",
          "type": "address"
        },
        {
          "internalType": "address",
          "name": "to",
          "type": "address"
        },
        {
          "internalType": "uint256",
          "name": "tokenId",
          "type": "uint256"
        }
      ],
      "name": "safeTransferFrom",
      "outputs": [],
      "stateMutability": "nonpayable",
      "type": "function"
    },
    {
      "inputs": [
        {
          "internalType": "address",
          "name": "from",
          "type": "address"
        },
        {
          "internalType": "address",
          "name": "to",
          "type": "address"
        },
        {
          "internalType": "uint256",
          "name": "tokenId",
          "type": "uint256"
        },
        {
          "internalType": "bytes",
          "name": "data",
          "type": "bytes"
        }
      ],
      "name": "safeTransferFrom",
      "outputs": [],
      "stateMutability": "nonpayable",
      "type": "function"
    },
    {
      "inputs": [
        {
          "internalType": "address",
          "name": "operator",
          "type": "address"
        },
        {
          "internalType": "bool",
          "name": "approved",
          "type": "bool"
        }
      ],
      "name": "setApprovalForAll",
      "outputs": [],
      "stateMutability": "nonpayable",
      "type": "function"
    },
    {
      "inputs": [
        {
          "internalType": "bytes4",
          "name": "interfaceId",
          "type": "bytes4"
        }
      ],
      "name": "supportsInterface",
      "outputs": [
        {
          "internalType": "bool",
          "name": "",
          "type": "bool"
        }
      ],
      "stateMutability": "view",
      "type": "function"
    },
    {
      "inputs": [],
      "name": "symbol",
      "outputs": [
        {
          "internalType": "string",
          "name": "",
          "type": "string"
        }
      ],
      "stateMutability": "view",
      "type": "function"
    },
    {
      "inputs": [
        {
          "internalType": "uint256",
          "name": "tokenId",
          "type": "uint256"
        }
      ],
      "name": "tokenURI",
      "outputs": [
        {
          "internalType": "string",
          "name": "",
          "type": "string"
        }
      ],
      "stateMutability": "view",
      "type": "function"
    },
    {
      "inputs": [
        {
          "internalType": "address",
          "name": "from",
          "type": "address"
        },
        {
          "internalType": "address",
          "name": "to",
          "type": "address"
        },
        {
          "internalType": "uint256",
          "name": "tokenId",
          "type": "uint256"
        }
      ],
      "name": "transferFrom",
      "outputs": [],
      "stateMutability": "nonpayable",
      "type": "function"
    },
    {
      "inputs": [
        {
          "internalType": "uint256",
          "name": "_listingPrice",
          "type": "uint256"
        }
      ],
      "name": "updateListingPrice",
      "outputs": [],
      "stateMutability": "payable",
      "type": "function"
    }
  ],
  "bytecode": "0x60806040526658d15e176280006009553480156200001c57600080fd5b506040518060400160405280601081526020017f4d657461766572736520546f6b656e73000000000000000000000000000000008152506040518060400160405280600481526020017f4d4554540000000000000000000000000000000000000000000000000000000081525081600090816200009a919062000370565b508060019081620000ac919062000370565b50505033600a60006101000a81548173ffffffffffffffffffffffffffffffffffffffff021916908373ffffffffffffffffffffffffffffffffffffffff16021790555062000457565b600081519050919050565b7f4e487b7100000000000000000000000000000000000000000000000000000000600052604160045260246000fd5b7f4e487b7100000000000000000000000000000000000000000000000000000000600052602260045260246000fd5b600060028204905060018216806200017857607f821691505b6020821081036200018e576200018d62000130565b5b50919050565b60008190508160005260206000209050919050565b60006020601f8301049050919050565b600082821b905092915050565b600060088302620001f87fffffffffffffffffffffffffffffffffffffffffffffffffffffffffffffffff82620001b9565b620002048683620001b9565b95508019841693508086168417925050509392505050565b6000819050919050565b6000819050919050565b6000620002516200024b62000245846200021c565b62000226565b6200021c565b9050919050565b6000819050919050565b6200026d8362000230565b620002856200027c8262000258565b848454620001c6565b825550505050565b600090565b6200029c6200028d565b620002a981848462000262565b505050565b5b81811015620002d157620002c560008262000292565b600181019050620002af565b5050565b601f8211156200032057620002ea8162000194565b620002f584620001a9565b8101602085101562000305578190505b6200031d6200031485620001a9565b830182620002ae565b50505b505050565b600082821c905092915050565b6000620003456000198460080262000325565b1980831691505092915050565b600062000360838362000332565b9150826002028217905092915050565b6200037b82620000f6565b67ffffffffffffffff81111562000397576200039662000101565b5b620003a382546200015f565b620003b0828285620002d5565b600060209050601f831160018114620003e85760008415620003d3578287015190505b620003df858262000352565b8655506200044f565b601f198416620003f88662000194565b60005b828110156200042257848901518255600182019150602085019450602081019050620003fb565b868310156200044257848901516200043e601f89168262000332565b8355505b6001600288020188555050505b505050505050565b61411480620004676000396000f3fe60806040526004361061012a5760003560e01c80636352211e116100ab578063ae677aa31161006f578063ae677aa3146103f9578063b88d4fde14610415578063be9af5361461043e578063c87b56dd1461045a578063e219fc7514610497578063e985e9c5146104b35761012a565b80636352211e146102fb57806370a082311461033857806372b3b6201461037557806395d89b41146103a5578063a22cb465146103d05761012a565b806312e85585116100f257806312e8558514610228578063202e37401461025357806323b872dd1461027e57806342842e0e146102a757806345f8fa80146102d05761012a565b806301ffc9a71461012f57806306fdde031461016c578063081812fc14610197578063095ea7b3146101d45780630f08efe0146101fd575b600080fd5b34801561013b57600080fd5b5061015660048036038101906101519190612976565b6104f0565b60405161016391906129be565b60405180910390f35b34801561017857600080fd5b506101816105d2565b60405161018e9190612a69565b60405180910390f35b3480156101a357600080fd5b506101be60048036038101906101b99190612ac1565b610664565b6040516101cb9190612b2f565b60405180910390f35b3480156101e057600080fd5b506101fb60048036038101906101f69190612b76565b6106aa565b005b34801561020957600080fd5b506102126107c1565b60405161021f9190612d0c565b60405180910390f35b34801561023457600080fd5b5061023d610a29565b60405161024a9190612d3d565b60405180910390f35b34801561025f57600080fd5b50610268610a33565b6040516102759190612d0c565b60405180910390f35b34801561028a57600080fd5b506102a560048036038101906102a09190612d58565b610d1f565b005b3480156102b357600080fd5b506102ce60048036038101906102c99190612d58565b610d7f565b005b3480156102dc57600080fd5b506102e5610d9f565b6040516102f29190612d0c565b60405180910390f35b34801561030757600080fd5b50610322600480360381019061031d9190612ac1565b61108b565b60405161032f9190612b2f565b60405180910390f35b34801561034457600080fd5b5061035f600480360381019061035a9190612dab565b61113c565b60405161036c9190612d3d565b60405180910390f35b61038f600480360381019061038a9190612f0d565b6111f3565b60405161039c9190612d3d565b60405180910390f35b3480156103b157600080fd5b506103ba611235565b6040516103c79190612a69565b60405180910390f35b3480156103dc57600080fd5b506103f760048036038101906103f29190612f95565b6112c7565b005b610413600480360381019061040e9190612ac1565b6112dd565b005b34801561042157600080fd5b5061043c60048036038101906104379190613076565b611377565b005b61045860048036038101906104539190612ac1565b6113d9565b005b34801561046657600080fd5b50610481600480360381019061047c9190612ac1565b611611565b60405161048e9190612a69565b60405180910390f35b6104b160048036038101906104ac91906130f9565b611723565b005b3480156104bf57600080fd5b506104da60048036038101906104d59190613139565b611918565b6040516104e791906129be565b60405180910390f35b60007f80ac58cd000000000000000000000000000000000000000000000000000000007bffffffffffffffffffffffffffffffffffffffffffffffffffffffff1916827bffffffffffffffffffffffffffffffffffffffffffffffffffffffff191614806105bb57507f5b5e139f000000000000000000000000000000000000000000000000000000007bffffffffffffffffffffffffffffffffffffffffffffffffffffffff1916827bffffffffffffffffffffffffffffffffffffffffffffffffffffffff1916145b806105cb57506105ca826119ac565b5b9050919050565b6060600080546105e1906131a8565b80601f016020809104026020016040519081016040528092919081815260200182805461060d906131a8565b801561065a5780601f1061062f5761010080835404028352916020019161065a565b820191906000526020600020905b81548152906001019060200180831161063d57829003601f168201915b5050505050905090565b600061066f82611a16565b6004600083815260200190815260200160002060009054906101000a900473ffffffffffffffffffffffffffffffffffffffff169050919050565b60006106b58261108b565b90508073ffffffffffffffffffffffffffffffffffffffff168373ffffffffffffffffffffffffffffffffffffffff1603610725576040517f08c379a000000000000000000000000000000000000000000000000000000000815260040161071c9061324b565b60405180910390fd5b8073ffffffffffffffffffffffffffffffffffffffff16610744611a61565b73ffffffffffffffffffffffffffffffffffffffff16148061077357506107728161076d611a61565b611918565b5b6107b2576040517f08c379a00000000000000000000000000000000000000000000000000000000081526004016107a9906132dd565b60405180910390fd5b6107bc8383611a69565b505050565b606060006107cf6007611b22565b905060006107dd6008611b22565b6107e76007611b22565b6107f1919061332c565b90506000808267ffffffffffffffff8111156108105761080f612de2565b5b60405190808252806020026020018201604052801561084957816020015b6108366128ad565b81526020019060019003908161082e5790505b50905060005b84811015610a1e573073ffffffffffffffffffffffffffffffffffffffff16600b600060018461087f9190613360565b815260200190815260200160002060020160009054906101000a900473ffffffffffffffffffffffffffffffffffffffff1673ffffffffffffffffffffffffffffffffffffffff1603610a0b5760006001826108db9190613360565b90506000600b60008381526020019081526020016000209050806040518060a0016040529081600082015481526020016001820160009054906101000a900473ffffffffffffffffffffffffffffffffffffffff1673ffffffffffffffffffffffffffffffffffffffff1673ffffffffffffffffffffffffffffffffffffffff1681526020016002820160009054906101000a900473ffffffffffffffffffffffffffffffffffffffff1673ffffffffffffffffffffffffffffffffffffffff1673ffffffffffffffffffffffffffffffffffffffff168152602001600382015481526020016004820160009054906101000a900460ff1615151515815250508486815181106109ee576109ed613394565b5b6020026020010181905250600185610a069190613360565b945050505b8080610a16906133c3565b91505061084f565b508094505050505090565b6000600954905090565b60606000610a416007611b22565b905060008060005b83811015610ae9573373ffffffffffffffffffffffffffffffffffffffff16600b6000600184610a799190613360565b815260200190815260200160002060020160009054906101000a900473ffffffffffffffffffffffffffffffffffffffff1673ffffffffffffffffffffffffffffffffffffffff1603610ad657600183610ad39190613360565b92505b8080610ae1906133c3565b915050610a49565b5060008267ffffffffffffffff811115610b0657610b05612de2565b5b604051908082528060200260200182016040528015610b3f57816020015b610b2c6128ad565b815260200190600190039081610b245790505b50905060005b84811015610d14573373ffffffffffffffffffffffffffffffffffffffff16600b6000600184610b759190613360565b815260200190815260200160002060020160009054906101000a900473ffffffffffffffffffffffffffffffffffffffff1673ffffffffffffffffffffffffffffffffffffffff1603610d01576000600182610bd19190613360565b90506000600b60008381526020019081526020016000209050806040518060a0016040529081600082015481526020016001820160009054906101000a900473ffffffffffffffffffffffffffffffffffffffff1673ffffffffffffffffffffffffffffffffffffffff1673ffffffffffffffffffffffffffffffffffffffff1681526020016002820160009054906101000a900473ffffffffffffffffffffffffffffffffffffffff1673ffffffffffffffffffffffffffffffffffffffff1673ffffffffffffffffffffffffffffffffffffffff168152602001600382015481526020016004820160009054906101000a900460ff161515151581525050848681518110610ce457610ce3613394565b5b6020026020010181905250600185610cfc9190613360565b945050505b8080610d0c906133c3565b915050610b45565b508094505050505090565b610d30610d2a611a61565b82611b30565b610d6f576040517f08c379a0000000000000000000000000000000000000000000000000000000008152600401610d669061347d565b60405180910390fd5b610d7a838383611bc5565b505050565b610d9a83838360405180602001604052806000815250611377565b505050565b60606000610dad6007611b22565b905060008060005b83811015610e55573373ffffffffffffffffffffffffffffffffffffffff16600b6000600184610de59190613360565b815260200190815260200160002060010160009054906101000a900473ffffffffffffffffffffffffffffffffffffffff1673ffffffffffffffffffffffffffffffffffffffff1603610e4257600183610e3f9190613360565b92505b8080610e4d906133c3565b915050610db5565b5060008267ffffffffffffffff811115610e7257610e71612de2565b5b604051908082528060200260200182016040528015610eab57816020015b610e986128ad565b815260200190600190039081610e905790505b50905060005b84811015611080573373ffffffffffffffffffffffffffffffffffffffff16600b6000600184610ee19190613360565b815260200190815260200160002060010160009054906101000a900473ffffffffffffffffffffffffffffffffffffffff1673ffffffffffffffffffffffffffffffffffffffff160361106d576000600182610f3d9190613360565b90506000600b60008381526020019081526020016000209050806040518060a0016040529081600082015481526020016001820160009054906101000a900473ffffffffffffffffffffffffffffffffffffffff1673ffffffffffffffffffffffffffffffffffffffff1673ffffffffffffffffffffffffffffffffffffffff1681526020016002820160009054906101000a900473ffffffffffffffffffffffffffffffffffffffff1673ffffffffffffffffffffffffffffffffffffffff1673ffffffffffffffffffffffffffffffffffffffff168152602001600382015481526020016004820160009054906101000a900460ff1615151515815250508486815181106110505761104f613394565b5b60200260200101819052506001856110689190613360565b945050505b8080611078906133c3565b915050610eb1565b508094505050505090565b6000806002600084815260200190815260200160002060009054906101000a900473ffffffffffffffffffffffffffffffffffffffff169050600073ffffffffffffffffffffffffffffffffffffffff168173ffffffffffffffffffffffffffffffffffffffff1603611133576040517f08c379a000000000000000000000000000000000000000000000000000000000815260040161112a906134e9565b60405180910390fd5b80915050919050565b60008073ffffffffffffffffffffffffffffffffffffffff168273ffffffffffffffffffffffffffffffffffffffff16036111ac576040517f08c379a00000000000000000000000000000000000000000000000000000000081526004016111a39061357b565b60405180910390fd5b600360008373ffffffffffffffffffffffffffffffffffffffff1673ffffffffffffffffffffffffffffffffffffffff168152602001908152602001600020549050919050565b60006111ff6007611e2b565b600061120b6007611b22565b90506112173382611e41565b611221818561201a565b61122b8184612087565b8091505092915050565b606060018054611244906131a8565b80601f0160208091040260200160405190810160405280929190818152602001828054611270906131a8565b80156112bd5780601f10611292576101008083540402835291602001916112bd565b820191906000526020600020905b8154815290600101906020018083116112a057829003601f168201915b5050505050905090565b6112d96112d2611a61565b838361228a565b5050565b3373ffffffffffffffffffffffffffffffffffffffff16600a60009054906101000a900473ffffffffffffffffffffffffffffffffffffffff1673ffffffffffffffffffffffffffffffffffffffff161461136d576040517f08c379a00000000000000000000000000000000000000000000000000000000081526004016113649061360d565b60405180910390fd5b8060098190555050565b611388611382611a61565b83611b30565b6113c7576040517f08c379a00000000000000000000000000000000000000000000000000000000081526004016113be9061347d565b60405180910390fd5b6113d3848484846123f6565b50505050565b6000600b6000838152602001908152602001600020600301549050803414611436576040517f08c379a000000000000000000000000000000000000000000000000000000000815260040161142d9061369f565b60405180910390fd5b33600b600084815260200190815260200160002060020160006101000a81548173ffffffffffffffffffffffffffffffffffffffff021916908373ffffffffffffffffffffffffffffffffffffffff1602179055506001600b600084815260200190815260200160002060040160006101000a81548160ff0219169083151502179055506000600b600084815260200190815260200160002060010160006101000a81548173ffffffffffffffffffffffffffffffffffffffff021916908373ffffffffffffffffffffffffffffffffffffffff16021790555061151a6008611e2b565b611525303384611bc5565b600a60009054906101000a900473ffffffffffffffffffffffffffffffffffffffff1673ffffffffffffffffffffffffffffffffffffffff166108fc6009549081150290604051600060405180830381858888f1935050505015801561158f573d6000803e3d6000fd5b50600b600083815260200190815260200160002060010160009054906101000a900473ffffffffffffffffffffffffffffffffffffffff1673ffffffffffffffffffffffffffffffffffffffff166108fc349081150290604051600060405180830381858888f1935050505015801561160c573d6000803e3d6000fd5b505050565b606061161c82611a16565b600060066000848152602001908152602001600020805461163c906131a8565b80601f0160208091040260200160405190810160405280929190818152602001828054611668906131a8565b80156116b55780601f1061168a576101008083540402835291602001916116b5565b820191906000526020600020905b81548152906001019060200180831161169857829003601f168201915b5050505050905060006116c6612452565b905060008151036116db57819250505061171e565b6000825111156117105780826040516020016116f89291906136fb565b6040516020818303038152906040529250505061171e565b61171984612469565b925050505b919050565b3373ffffffffffffffffffffffffffffffffffffffff16600b600084815260200190815260200160002060020160009054906101000a900473ffffffffffffffffffffffffffffffffffffffff1673ffffffffffffffffffffffffffffffffffffffff16146117c7576040517f08c379a00000000000000000000000000000000000000000000000000000000081526004016117be90613791565b60405180910390fd5b600954341461180b576040517f08c379a000000000000000000000000000000000000000000000000000000000815260040161180290613823565b60405180910390fd5b6000600b600084815260200190815260200160002060040160006101000a81548160ff02191690831515021790555080600b60008481526020019081526020016000206003018190555033600b600084815260200190815260200160002060010160006101000a81548173ffffffffffffffffffffffffffffffffffffffff021916908373ffffffffffffffffffffffffffffffffffffffff16021790555030600b600084815260200190815260200160002060020160006101000a81548173ffffffffffffffffffffffffffffffffffffffff021916908373ffffffffffffffffffffffffffffffffffffffff16021790555061190960086124d1565b611914333084611bc5565b5050565b6000600560008473ffffffffffffffffffffffffffffffffffffffff1673ffffffffffffffffffffffffffffffffffffffff16815260200190815260200160002060008373ffffffffffffffffffffffffffffffffffffffff1673ffffffffffffffffffffffffffffffffffffffff16815260200190815260200160002060009054906101000a900460ff16905092915050565b60007f01ffc9a7000000000000000000000000000000000000000000000000000000007bffffffffffffffffffffffffffffffffffffffffffffffffffffffff1916827bffffffffffffffffffffffffffffffffffffffffffffffffffffffff1916149050919050565b611a1f8161252d565b611a5e576040517f08c379a0000000000000000000000000000000000000000000000000000000008152600401611a55906134e9565b60405180910390fd5b50565b600033905090565b816004600083815260200190815260200160002060006101000a81548173ffffffffffffffffffffffffffffffffffffffff021916908373ffffffffffffffffffffffffffffffffffffffff160217905550808273ffffffffffffffffffffffffffffffffffffffff16611adc8361108b565b73ffffffffffffffffffffffffffffffffffffffff167f8c5be1e5ebec7d5bd14f71427d1e84f3dd0314c0f7b2291e5b200ac8c7c3b92560405160405180910390a45050565b600081600001549050919050565b600080611b3c8361108b565b90508073ffffffffffffffffffffffffffffffffffffffff168473ffffffffffffffffffffffffffffffffffffffff161480611b7e5750611b7d8185611918565b5b80611bbc57508373ffffffffffffffffffffffffffffffffffffffff16611ba484610664565b73ffffffffffffffffffffffffffffffffffffffff16145b91505092915050565b8273ffffffffffffffffffffffffffffffffffffffff16611be58261108b565b73ffffffffffffffffffffffffffffffffffffffff1614611c3b576040517f08c379a0000000000000000000000000000000000000000000000000000000008152600401611c32906138b5565b60405180910390fd5b600073ffffffffffffffffffffffffffffffffffffffff168273ffffffffffffffffffffffffffffffffffffffff1603611caa576040517f08c379a0000000000000000000000000000000000000000000000000000000008152600401611ca190613947565b60405180910390fd5b611cb5838383612599565b611cc0600082611a69565b6001600360008573ffffffffffffffffffffffffffffffffffffffff1673ffffffffffffffffffffffffffffffffffffffff1681526020019081526020016000206000828254611d10919061332c565b925050819055506001600360008473ffffffffffffffffffffffffffffffffffffffff1673ffffffffffffffffffffffffffffffffffffffff1681526020019081526020016000206000828254611d679190613360565b92505081905550816002600083815260200190815260200160002060006101000a81548173ffffffffffffffffffffffffffffffffffffffff021916908373ffffffffffffffffffffffffffffffffffffffff160217905550808273ffffffffffffffffffffffffffffffffffffffff168473ffffffffffffffffffffffffffffffffffffffff167fddf252ad1be2c89b69c2b068fc378daa952ba7f163c4a11628f55a4df523b3ef60405160405180910390a4611e2683838361259e565b505050565b6001816000016000828254019250508190555050565b600073ffffffffffffffffffffffffffffffffffffffff168273ffffffffffffffffffffffffffffffffffffffff1603611eb0576040517f08c379a0000000000000000000000000000000000000000000000000000000008152600401611ea7906139b3565b60405180910390fd5b611eb98161252d565b15611ef9576040517f08c379a0000000000000000000000000000000000000000000000000000000008152600401611ef090613a1f565b60405180910390fd5b611f0560008383612599565b6001600360008473ffffffffffffffffffffffffffffffffffffffff1673ffffffffffffffffffffffffffffffffffffffff1681526020019081526020016000206000828254611f559190613360565b92505081905550816002600083815260200190815260200160002060006101000a81548173ffffffffffffffffffffffffffffffffffffffff021916908373ffffffffffffffffffffffffffffffffffffffff160217905550808273ffffffffffffffffffffffffffffffffffffffff16600073ffffffffffffffffffffffffffffffffffffffff167fddf252ad1be2c89b69c2b068fc378daa952ba7f163c4a11628f55a4df523b3ef60405160405180910390a46120166000838361259e565b5050565b6120238261252d565b612062576040517f08c379a000000000000000000000000000000000000000000000000000000000815260040161205990613ab1565b60405180910390fd5b806006600084815260200190815260200160002090816120829190613c7d565b505050565b600081116120ca576040517f08c379a00000000000000000000000000000000000000000000000000000000081526004016120c190613d9b565b60405180910390fd5b600954341461210e576040517f08c379a000000000000000000000000000000000000000000000000000000000815260040161210590613823565b60405180910390fd5b6040518060a001604052808381526020013373ffffffffffffffffffffffffffffffffffffffff1681526020013073ffffffffffffffffffffffffffffffffffffffff16815260200182815260200160001515815250600b60008481526020019081526020016000206000820151816000015560208201518160010160006101000a81548173ffffffffffffffffffffffffffffffffffffffff021916908373ffffffffffffffffffffffffffffffffffffffff16021790555060408201518160020160006101000a81548173ffffffffffffffffffffffffffffffffffffffff021916908373ffffffffffffffffffffffffffffffffffffffff1602179055506060820151816003015560808201518160040160006101000a81548160ff021916908315150217905550905050612247333084611bc5565b817fb640004f1d14576d0c209e240cad0410e0d8c0c33a09375861fbadae2588a98d333084600060405161227e9493929190613dbb565b60405180910390a25050565b8173ffffffffffffffffffffffffffffffffffffffff168373ffffffffffffffffffffffffffffffffffffffff16036122f8576040517f08c379a00000000000000000000000000000000000000000000000000000000081526004016122ef90613e4c565b60405180910390fd5b80600560008573ffffffffffffffffffffffffffffffffffffffff1673ffffffffffffffffffffffffffffffffffffffff16815260200190815260200160002060008473ffffffffffffffffffffffffffffffffffffffff1673ffffffffffffffffffffffffffffffffffffffff16815260200190815260200160002060006101000a81548160ff0219169083151502179055508173ffffffffffffffffffffffffffffffffffffffff168373ffffffffffffffffffffffffffffffffffffffff167f17307eab39ab6107e8899845ad3d59bd9653f200f220920489ca2b5937696c31836040516123e991906129be565b60405180910390a3505050565b612401848484611bc5565b61240d848484846125a3565b61244c576040517f08c379a000000000000000000000000000000000000000000000000000000000815260040161244390613ede565b60405180910390fd5b50505050565b606060405180602001604052806000815250905090565b606061247482611a16565b600061247e612452565b9050600081511161249e57604051806020016040528060008152506124c9565b806124a88461272a565b6040516020016124b99291906136fb565b6040516020818303038152906040525b915050919050565b6000816000015490506000811161251d576040517f08c379a000000000000000000000000000000000000000000000000000000000815260040161251490613f4a565b60405180910390fd5b6001810382600001819055505050565b60008073ffffffffffffffffffffffffffffffffffffffff166002600084815260200190815260200160002060009054906101000a900473ffffffffffffffffffffffffffffffffffffffff1673ffffffffffffffffffffffffffffffffffffffff1614159050919050565b505050565b505050565b60006125c48473ffffffffffffffffffffffffffffffffffffffff1661288a565b1561271d578373ffffffffffffffffffffffffffffffffffffffff1663150b7a026125ed611a61565b8786866040518563ffffffff1660e01b815260040161260f9493929190613fbf565b6020604051808303816000875af192505050801561264b57506040513d601f19601f820116820180604052508101906126489190614020565b60015b6126cd573d806000811461267b576040519150601f19603f3d011682016040523d82523d6000602084013e612680565b606091505b5060008151036126c5576040517f08c379a00000000000000000000000000000000000000000000000000000000081526004016126bc90613ede565b60405180910390fd5b805181602001fd5b63150b7a0260e01b7bffffffffffffffffffffffffffffffffffffffffffffffffffffffff1916817bffffffffffffffffffffffffffffffffffffffffffffffffffffffff191614915050612722565b600190505b949350505050565b606060008203612771576040518060400160405280600181526020017f30000000000000000000000000000000000000000000000000000000000000008152509050612885565b600082905060005b600082146127a357808061278c906133c3565b915050600a8261279c919061407c565b9150612779565b60008167ffffffffffffffff8111156127bf576127be612de2565b5b6040519080825280601f01601f1916602001820160405280156127f15781602001600182028036833780820191505090505b5090505b6000851461287e5760018261280a919061332c565b9150600a8561281991906140ad565b60306128259190613360565b60f81b81838151811061283b5761283a613394565b5b60200101907effffffffffffffffffffffffffffffffffffffffffffffffffffffffffffff1916908160001a905350600a85612877919061407c565b94506127f5565b8093505050505b919050565b6000808273ffffffffffffffffffffffffffffffffffffffff163b119050919050565b6040518060a0016040528060008152602001600073ffffffffffffffffffffffffffffffffffffffff168152602001600073ffffffffffffffffffffffffffffffffffffffff168152602001600081526020016000151581525090565b6000604051905090565b600080fd5b600080fd5b60007fffffffff0000000000000000000000000000000000000000000000000000000082169050919050565b6129538161291e565b811461295e57600080fd5b50565b6000813590506129708161294a565b92915050565b60006020828403121561298c5761298b612914565b5b600061299a84828501612961565b91505092915050565b60008115159050919050565b6129b8816129a3565b82525050565b60006020820190506129d360008301846129af565b92915050565b600081519050919050565b600082825260208201905092915050565b60005b83811015612a135780820151818401526020810190506129f8565b60008484015250505050565b6000601f19601f8301169050919050565b6000612a3b826129d9565b612a4581856129e4565b9350612a558185602086016129f5565b612a5e81612a1f565b840191505092915050565b60006020820190508181036000830152612a838184612a30565b905092915050565b6000819050919050565b612a9e81612a8b565b8114612aa957600080fd5b50565b600081359050612abb81612a95565b92915050565b600060208284031215612ad757612ad6612914565b5b6000612ae584828501612aac565b91505092915050565b600073ffffffffffffffffffffffffffffffffffffffff82169050919050565b6000612b1982612aee565b9050919050565b612b2981612b0e565b82525050565b6000602082019050612b446000830184612b20565b92915050565b612b5381612b0e565b8114612b5e57600080fd5b50565b600081359050612b7081612b4a565b92915050565b60008060408385031215612b8d57612b8c612914565b5b6000612b9b85828601612b61565b9250506020612bac85828601612aac565b9150509250929050565b600081519050919050565b600082825260208201905092915050565b6000819050602082019050919050565b612beb81612a8b565b82525050565b6000612bfc82612aee565b9050919050565b612c0c81612bf1565b82525050565b612c1b816129a3565b82525050565b60a082016000820151612c376000850182612be2565b506020820151612c4a6020850182612c03565b506040820151612c5d6040850182612c03565b506060820151612c706060850182612be2565b506080820151612c836080850182612c12565b50505050565b6000612c958383612c21565b60a08301905092915050565b6000602082019050919050565b6000612cb982612bb6565b612cc38185612bc1565b9350612cce83612bd2565b8060005b83811015612cff578151612ce68882612c89565b9750612cf183612ca1565b925050600181019050612cd2565b5085935050505092915050565b60006020820190508181036000830152612d268184612cae565b905092915050565b612d3781612a8b565b82525050565b6000602082019050612d526000830184612d2e565b92915050565b600080600060608486031215612d7157612d70612914565b5b6000612d7f86828701612b61565b9350506020612d9086828701612b61565b9250506040612da186828701612aac565b9150509250925092565b600060208284031215612dc157612dc0612914565b5b6000612dcf84828501612b61565b91505092915050565b600080fd5b600080fd5b7f4e487b7100000000000000000000000000000000000000000000000000000000600052604160045260246000fd5b612e1a82612a1f565b810181811067ffffffffffffffff82111715612e3957612e38612de2565b5b80604052505050565b6000612e4c61290a565b9050612e588282612e11565b919050565b600067ffffffffffffffff821115612e7857612e77612de2565b5b612e8182612a1f565b9050602081019050919050565b82818337600083830152505050565b6000612eb0612eab84612e5d565b612e42565b905082815260208101848484011115612ecc57612ecb612ddd565b5b612ed7848285612e8e565b509392505050565b600082601f830112612ef457612ef3612dd8565b5b8135612f04848260208601612e9d565b91505092915050565b60008060408385031215612f2457612f23612914565b5b600083013567ffffffffffffffff811115612f4257612f41612919565b5b612f4e85828601612edf565b9250506020612f5f85828601612aac565b9150509250929050565b612f72816129a3565b8114612f7d57600080fd5b50565b600081359050612f8f81612f69565b92915050565b60008060408385031215612fac57612fab612914565b5b6000612fba85828601612b61565b9250506020612fcb85828601612f80565b9150509250929050565b600067ffffffffffffffff821115612ff057612fef612de2565b5b612ff982612a1f565b9050602081019050919050565b600061301961301484612fd5565b612e42565b90508281526020810184848401111561303557613034612ddd565b5b613040848285612e8e565b509392505050565b600082601f83011261305d5761305c612dd8565b5b813561306d848260208601613006565b91505092915050565b600080600080608085870312156130905761308f612914565b5b600061309e87828801612b61565b94505060206130af87828801612b61565b93505060406130c087828801612aac565b925050606085013567ffffffffffffffff8111156130e1576130e0612919565b5b6130ed87828801613048565b91505092959194509250565b600080604083850312156131105761310f612914565b5b600061311e85828601612aac565b925050602061312f85828601612aac565b9150509250929050565b600080604083850312156131505761314f612914565b5b600061315e85828601612b61565b925050602061316f85828601612b61565b9150509250929050565b7f4e487b7100000000000000000000000000000000000000000000000000000000600052602260045260246000fd5b600060028204905060018216806131c057607f821691505b6020821081036131d3576131d2613179565b5b50919050565b7f4552433732313a20617070726f76616c20746f2063757272656e74206f776e6560008201527f7200000000000000000000000000000000000000000000000000000000000000602082015250565b60006132356021836129e4565b9150613240826131d9565b604082019050919050565b6000602082019050818103600083015261326481613228565b9050919050565b7f4552433732313a20617070726f76652063616c6c6572206973206e6f7420746f60008201527f6b656e206f776e6572206e6f7220617070726f76656420666f7220616c6c0000602082015250565b60006132c7603e836129e4565b91506132d28261326b565b604082019050919050565b600060208201905081810360008301526132f6816132ba565b9050919050565b7f4e487b7100000000000000000000000000000000000000000000000000000000600052601160045260246000fd5b600061333782612a8b565b915061334283612a8b565b925082820390508181111561335a576133596132fd565b5b92915050565b600061336b82612a8b565b915061337683612a8b565b925082820190508082111561338e5761338d6132fd565b5b92915050565b7f4e487b7100000000000000000000000000000000000000000000000000000000600052603260045260246000fd5b60006133ce82612a8b565b91507fffffffffffffffffffffffffffffffffffffffffffffffffffffffffffffffff8203613400576133ff6132fd565b5b600182019050919050565b7f4552433732313a2063616c6c6572206973206e6f7420746f6b656e206f776e6560008201527f72206e6f7220617070726f766564000000000000000000000000000000000000602082015250565b6000613467602e836129e4565b91506134728261340b565b604082019050919050565b600060208201905081810360008301526134968161345a565b9050919050565b7f4552433732313a20696e76616c696420746f6b656e2049440000000000000000600082015250565b60006134d36018836129e4565b91506134de8261349d565b602082019050919050565b60006020820190508181036000830152613502816134c6565b9050919050565b7f4552433732313a2061646472657373207a65726f206973206e6f74206120766160008201527f6c6964206f776e65720000000000000000000000000000000000000000000000602082015250565b60006135656029836129e4565b915061357082613509565b604082019050919050565b6000602082019050818103600083015261359481613558565b9050919050565b7f4f6e6c79206d61726b6574706c616365206f776e65722063616e20757064617460008201527f65206c697374696e672070726963652e00000000000000000000000000000000602082015250565b60006135f76030836129e4565b91506136028261359b565b604082019050919050565b60006020820190508181036000830152613626816135ea565b9050919050565b7f506c65617365207375626d6974207468652061736b696e67207072696365206960008201527f6e206f7264657220746f20636f6d706c65746520746865207075726368617365602082015250565b60006136896040836129e4565b91506136948261362d565b604082019050919050565b600060208201905081810360008301526136b88161367c565b9050919050565b600081905092915050565b60006136d5826129d9565b6136df81856136bf565b93506136ef8185602086016129f5565b80840191505092915050565b600061370782856136ca565b915061371382846136ca565b91508190509392505050565b7f4f6e6c79206974656d206f776e65722063616e20706572666f726d207468697360008201527f206f7065726174696f6e00000000000000000000000000000000000000000000602082015250565b600061377b602a836129e4565b91506137868261371f565b604082019050919050565b600060208201905081810360008301526137aa8161376e565b9050919050565b7f5072696365206d75737420626520657175616c20746f206c697374696e67207060008201527f7269636500000000000000000000000000000000000000000000000000000000602082015250565b600061380d6024836129e4565b9150613818826137b1565b604082019050919050565b6000602082019050818103600083015261383c81613800565b9050919050565b7f4552433732313a207472616e736665722066726f6d20696e636f72726563742060008201527f6f776e6572000000000000000000000000000000000000000000000000000000602082015250565b600061389f6025836129e4565b91506138aa82613843565b604082019050919050565b600060208201905081810360008301526138ce81613892565b9050919050565b7f4552433732313a207472616e7366657220746f20746865207a65726f2061646460008201527f7265737300000000000000000000000000000000000000000000000000000000602082015250565b60006139316024836129e4565b915061393c826138d5565b604082019050919050565b6000602082019050818103600083015261396081613924565b9050919050565b7f4552433732313a206d696e7420746f20746865207a65726f2061646472657373600082015250565b600061399d6020836129e4565b91506139a882613967565b602082019050919050565b600060208201905081810360008301526139cc81613990565b9050919050565b7f4552433732313a20746f6b656e20616c7265616479206d696e74656400000000600082015250565b6000613a09601c836129e4565b9150613a14826139d3565b602082019050919050565b60006020820190508181036000830152613a38816139fc565b9050919050565b7f45524337323155524953746f726167653a2055524920736574206f66206e6f6e60008201527f6578697374656e7420746f6b656e000000000000000000000000000000000000602082015250565b6000613a9b602e836129e4565b9150613aa682613a3f565b604082019050919050565b60006020820190508181036000830152613aca81613a8e565b9050919050565b60008190508160005260206000209050919050565b60006020601f8301049050919050565b600082821b905092915050565b600060088302613b337fffffffffffffffffffffffffffffffffffffffffffffffffffffffffffffffff82613af6565b613b3d8683613af6565b95508019841693508086168417925050509392505050565b6000819050919050565b6000613b7a613b75613b7084612a8b565b613b55565b612a8b565b9050919050565b6000819050919050565b613b9483613b5f565b613ba8613ba082613b81565b848454613b03565b825550505050565b600090565b613bbd613bb0565b613bc8818484613b8b565b505050565b5b81811015613bec57613be1600082613bb5565b600181019050613bce565b5050565b601f821115613c3157613c0281613ad1565b613c0b84613ae6565b81016020851015613c1a578190505b613c2e613c2685613ae6565b830182613bcd565b50505b505050565b600082821c905092915050565b6000613c5460001984600802613c36565b1980831691505092915050565b6000613c6d8383613c43565b9150826002028217905092915050565b613c86826129d9565b67ffffffffffffffff811115613c9f57613c9e612de2565b5b613ca982546131a8565b613cb4828285613bf0565b600060209050601f831160018114613ce75760008415613cd5578287015190505b613cdf8582613c61565b865550613d47565b601f198416613cf586613ad1565b60005b82811015613d1d57848901518255600182019150602085019450602081019050613cf8565b86831015613d3a5784890151613d36601f891682613c43565b8355505b6001600288020188555050505b505050505050565b7f5072696365206d757374206265206174206c6561737420312077656900000000600082015250565b6000613d85601c836129e4565b9150613d9082613d4f565b602082019050919050565b60006020820190508181036000830152613db481613d78565b9050919050565b6000608082019050613dd06000830187612b20565b613ddd6020830186612b20565b613dea6040830185612d2e565b613df760608301846129af565b95945050505050565b7f4552433732313a20617070726f766520746f2063616c6c657200000000000000600082015250565b6000613e366019836129e4565b9150613e4182613e00565b602082019050919050565b60006020820190508181036000830152613e6581613e29565b9050919050565b7f4552433732313a207472616e7366657220746f206e6f6e20455243373231526560008201527f63656976657220696d706c656d656e7465720000000000000000000000000000602082015250565b6000613ec86032836129e4565b9150613ed382613e6c565b604082019050919050565b60006020820190508181036000830152613ef781613ebb565b9050919050565b7f436f756e7465723a2064656372656d656e74206f766572666c6f770000000000600082015250565b6000613f34601b836129e4565b9150613f3f82613efe565b602082019050919050565b60006020820190508181036000830152613f6381613f27565b9050919050565b600081519050919050565b600082825260208201905092915050565b6000613f9182613f6a565b613f9b8185613f75565b9350613fab8185602086016129f5565b613fb481612a1f565b840191505092915050565b6000608082019050613fd46000830187612b20565b613fe16020830186612b20565b613fee6040830185612d2e565b81810360608301526140008184613f86565b905095945050505050565b60008151905061401a8161294a565b92915050565b60006020828403121561403657614035612914565b5b60006140448482850161400b565b91505092915050565b7f4e487b7100000000000000000000000000000000000000000000000000000000600052601260045260246000fd5b600061408782612a8b565b915061409283612a8b565b9250826140a2576140a161404d565b5b828204905092915050565b60006140b882612a8b565b91506140c383612a8b565b9250826140d3576140d261404d565b5b82820690509291505056fea264697066735822122084890c9b2e15009b59b4c8cf21e7746e77bf14d8c2263020b63ae1b8379161b764736f6c63430008110033",
  "linkReferences": {},
  "deployedLinkReferences": {}
}